:020000040800F2
:10000000E03400200D020008291D0008091900082D
:10001000251D00084D050008054A000800000000E5
:10002000000000000000000000000000093F000880
:100030001506000800000000ED200008C14200087D
:10004000814A00082702000827020008270200084A
:1000500027020008270200082702000819060008E6
:1000600027020008270200084106000827020008AE
:1000700027020008270200082702000827020008BC
:1000800027020008270200082702000827020008AC
:10009000270200082702000827020008270200089C
:1000A000270200082702000827020008270200088C
:1000B0002702000827020008B143000827020008B1
:1000C000270200082702000827020008270200086C
:1000D00027020008014600086D46000827020008B4
:1000E000270200082702000827020008270200084C
:1000F000270200082702000827020008270200083C
:10010000270200082702000827020008270200082B
:100110005D450008894500082702000827020008FD
:10012000270200082702000827020008270200080B
:1001300000F002F800F05AF80AA090E8000C82449F
:100140008344AAF10107DA4501D100F04FF8AFF27C
:10015000090EBAE80F0013F0010F18BFFB1A43F0A5
:100160000103184718730000387300000A444FF069
:10017000000C10F8013B13F0070408BF10F8014B06
:100180001D1108BF10F8015B641E05D010F8016B4B
:10019000641E01F8016BF9D113F0080F1EBF10F8AF
:1001A000014BAD1C0C1B09D16D1E58BF01F801CBD2
:1001B000FAD505E014F8016B01F8016B6D1EF9D555
:1001C0009142D6D37047000000230024002500266A
:1001D000103A28BF78C1FBD8520728BF30C148BFAA
:1001E0000B6070471FB51FBD10B510BD00F0F9F8CA
:1001F0001146FFF7F7FF04F0FBFD00F017F903B419
:10020000FFF7F2FF03BC04F031FD0000094880470E
:1002100009480047FEE7FEE7FEE7FEE7FEE7FEE7E8
:10022000FEE7FEE7FEE7FEE704480549054A064B00
:1002300070470000F942000831010008E028002062
:10024000E0340020E02C0020E02C0020032A40F2C3
:10025000308010F0030C00F0158011F8013BBCF168
:10026000020F624498BF11F801CB00F8013B38BF80
:1002700011F8013BA2F1040298BF00F801CB38BF8E
:1002800000F8013B11F0030300F05280083AC0F07F
:10029000088051F8043B083A51F804CBA0E8081054
:1002A000F5E7121D5CBF51F8043B40F8043BAFF387
:1002B0000080D20724BF11F8013B11F801CB48BFE1
:1002C00011F8012B24BF00F8013B00F801CB48BF17
:1002D00000F8012B704702F0FF0343EA032242EAD1
:1002E000024200F002B84FF000020429C0F0128070
:1002F00010F0030C00F05080CCF1040CBCF1020FA4
:1003000018BF00F8012BA8BF20F8022BA1EB0C01AD
:1003100000F042B85FEAC17C24BF00F8012B00F86E
:10032000012B48BF00F8012B70477047704770479A
:1003300010B5203AC0F00B80B1E81850203AA0E880
:100340001850B1E81850A0E81850BFF4F5AF5FEAB4
:10035000027C24BFB1E81850A0E8185044BF18C967
:1003600018C0BDE810405FEA827C24BF51F8043B0E
:1003700040F8043B08BF7047D20728BF31F8023B62
:1003800048BF11F8012B28BF20F8023B48BF00F8F6
:10039000012B70474FF0000200B513469446964675
:1003A000203922BFA0E80C50A0E80C50B1F1200188
:1003B000BFF4F7AF090728BFA0E80C5048BF0CC036
:1003C0005DF804EB890028BF40F8042B08BF704794
:1003D00048BF20F8022B11F0804F18BF00F8012B06
:1003E0007047754600F02CF8AE4605006946534646
:1003F00020F00700854618B020B5FFF715FFBDE8CF
:1004000020404FF000064FF000074FF000084FF07B
:10041000000B21F00701AC46ACE8C009ACE8C0090C
:10042000ACE8C009ACE8C0098D46704710B5044679
:10043000AFF300802046BDE81040FFF7E0BE0000AB
:10044000004870478028002008B5012003F0E6F935
:10045000002001F0A3FC012008A310220821009035
:10046000302001F033F8002302220649104601F043
:10047000EBFB054804F0EEFC08BD0000B4FDBBFA40
:10048000000000003C02002030280020014601F05E
:100490000F00091101F00F0101EB81025100421818
:1004A000D0B270471FB50121084602F025FE012198
:1004B000102002F021FE48208DF80F000220ADF838
:1004C0000C0003A9124800F069FF0121022000F08E
:1004D00045FF0220019000208DF808000C208DF8C7
:1004E000090001208DF80A0001A800F0C9F80720D2
:1004F0008DF8000002208DF8010003208DF8020025
:1005000001208DF80300684601F010FC1FBD0000BB
:100510000010014010B5044614B1012C10D107E0C1
:100520000020094908700021084603F069FB08E033
:100530000120054908700121002003F061FB00E063
:1005400000BF00BF10BD00004D00002000BFFEE74F
:1005500010B502460B460020002104E0545C044420
:10056000E0B24C1CE1B29942F8DB10BD10B5024676
:100570000B460020002104E0545C0444A0B24C1C53
:10058000A1B29942F8DB10BD10B501F0BFF900210E
:100590000E2000F028F8022004F09EFB00210F201E
:1005A00000F021F8022004F097FB10BD70B504465E
:1005B000002501F029FAD02001F0F8F901F05AFAEB
:1005C000204601F0F3F901F055FA01F01DFAD120AF
:1005D00001F0ECF901F04EFA01F0BCF9054601F02A
:1005E00031FA284670BD70B505460C4601F00CFA8C
:1005F000D02001F0DBF901F03DFA284601F0D6F9F0
:1006000001F038FA204601F0D1F901F033FA01F097
:1006100019FA70BD7047000010B5022000F01CF8F8
:1006200048B1054B00224FF4FA61044804F0E8FB9E
:10063000022000F00BF810BD594300080C04002004
:1006400010B5102000F002F810BD0000014908604C
:100650007047000014040140014600200022074BAF
:100660001B6803EA0102054B14331B680B4013B1EE
:100670000AB1012000E000207047000000040140A2
:10068000002123498279002A3AD00A461268036879
:100690009A430B461A600A1D126803689A430B1DA1
:1006A0001A60027911440A6803681A430A60184AFA
:1006B0000832126803689A43154B08331A601A1DF2
:1006C000126803689A43124B0C331A604279102A5D
:1006D0000ED11A1F126803681A430D4B08331A60B3
:1006E0001A1D126803681A43094B0C331A600DE097
:1006F0000749427911440A6803681A430A6005E011
:10070000027911440A6803689A430A60704700003E
:100710000004014030B5044604254FF4302000F0B9
:1007200089F80546042D17D10C48006940F00200F5
:100730000A49086108464461006940F040000861C8
:100740004FF4302000F076F805460448006941F681
:10075000FD71084001490861284630BD0020024073
:1007600004200B49C96801F0010109B101200EE024
:100770000749C96801F0040109B1022007E00449F2
:10078000C96801F0100109B1032000E0042070479E
:10079000002002400348006940F0800001490861E0
:1007A00070470000002002400549096821F010014F
:1007B000034A116011460968014311607047000047
:1007C0000020024070B504460D460426F00200F0F9
:1007D00031F80646042E11D10948006940F00100A5
:1007E000074908612580F00200F024F80646044815
:1007F000006941F6FE71084001490861304670BD4C
:100800000020024001460020034A106800F0380032
:10081000084310607047000000200240024803496E
:100820004860034848607047230167450020024044
:10083000AB89EFCD00B502460423FFF791FF0346D5
:1008400003E0FFF78DFF0346521E012B01D1002A62
:10085000F7D102B90523184600BD000038B504469B
:1008600037480078DB2866D1207A00285ED13548E9
:100870000078012804D002280DD0032854D115E0B7
:1008800001203149087002202E4908701A212F4892
:1008900003F096FE49E002202B4908700320294905
:1008A00008701A212A4803F08BFE3EE0A079052843
:1008B00036D1032024490870012026490870002001
:1008C000254908700120254908701A21244803F0A1
:1008D00077FE012002F0A2FF002001F05FFA012064
:1008E00020A3102208210090104600F0EFFDA07A0E
:1008F000204908700846037802221F49012001F0B0
:10090000A3F91E4B01224FF4FA711D4804F078FA46
:100910001C4B00224FF4FA611B4804F071FA02E00C
:1009200000200949087000E000BF03E000200649EC
:10093000087038BD00E000BF00BF00BFF9E700004D
:100940007F030020FC020020810300204B030020D5
:100950006503002080030020840300201500002090
:1009600017030020D6B8CEC6D1E9D6A4B3C9B9A61C
:1009700000000000830300203C0200203D2000080E
:1009800000280020F12000084828002010B50B485E
:10099000007878B90A480078DB280BD10120094992
:1009A00008701A21084803F00BFE1A21074803F0CB
:1009B00007FE00E010BD00BFFCE70000810300203F
:1009C0007F030020FC02002031030020FD020020F4
:1009D00010B5044B01224FF47A71034804F010FA69
:1009E00010BD00008D090008E82700202DE9FC411A
:1009F000012201A9FE4800F0ABFB9DF80400FD496F
:100A000008709DF80400FF2814D10020FA490870EE
:100A100001F0C4F90120F9A3102208210090202040
:100A200000F054FDF84B00224FF4FA61F74804F04F
:100A3000E7F94EE3F64B00224FF47A71F54804F0E3
:100A4000DFF90422F449EA48001D00F081FBF24876
:100A50004078002141EA0040EF49897840EA0120CE
:100A6000ED49C9780843ED4908600846006804F07C
:100A7000DBFC04460022EA4B04F0FEFAE94A03C21A
:100A80000422E549DA48083000F062FBE248407889
:100A9000002141EA0040E049897840EA0120DE492E
:100AA000C9780843E04908600846006804F0BCFCC7
:100AB00004460022DA4B04F0DFFADC4A03C20422C7
:100AC000D549CB480C3000F043FBD3484078002197
:100AD00041EA0040D049897840EA0120CE49C978EE
:100AE0000843D34908600846006804F09DFC0446AA
:100AF0000022CB4B04F0C0FACE4A03C20422C649FE
:100B0000BB48103000F024FBC3484078002141EA84
:100B10000040C149897840EA0120BF49C9780843AB
:100B2000C54908600846006804F07EFC04460022BF
:100B3000BB4B04F0A1FAC14A03C20422C049AC482D
:100B4000183000F005FBBE484078002141EA004023
:100B5000BB49897840EA0120B949C9780843B949B5
:100B600008600846006804F05FFC06460022AC4BB3
:100B700004F082FA044604F099F9B3490860AB48DE
:100B8000A8490CC803C904F077FAB04A03C2A948BF
:100B9000A4490CC803C904F06FFAAD4A03C2A748C0
:100BA000A0490CC803C904F067FAAA4A03C200228C
:100BB000A94B9C4903C904F04BFC03D2A748A849A0
:100BC00008604BE00022A74B964903C904F040FCA3
:100BD00003D2A548A249086040E00022A34B9149F6
:100BE00003C904F035FC03D2A1489D49086035E0F3
:100BF0000022A04B8B4903C904F02AFC03D29E4873
:100C0000974908602AE000229C4B864903C904F0FA
:100C10001FFC03D29A48924908601FE00022994BBA
:100C2000804903C904F014FC03D297488C4908603A
:100C300014E00022954B7B4903C904F009FC03D260
:100C400093488749086009E00022924B754903C91F
:100C500004F038FD02D290488149086000228D4B93
:100C6000704903C904F030FC8C4A03C27C48006818
:100C700004F054FE06466B480CC8304604F024FCD1
:100C8000044668480CC8204604F042F9844A03C26E
:100C90007348006804F042FE064662480CC83046BD
:100CA00004F012FC04465F480CC8204604F030F9FA
:100CB0007C4A03C26A48006804F030FE0646594880
:100CC0000CC8304604F000FC044656480CC82046C8
:100CD00004F01EF9744A03C26148006804F01EFE65
:100CE000064650480CC8304604F0EEFB04464D481A
:100CF0000CC8204604F01CFD6C4A03C2584800682A
:100D000004F00CFE064647480CC8304604F0DCFBF5
:100D1000044644480CC8204604F0FAF8644A03C26A
:100D20004F48006804F0FAFD06463E480CC83046BD
:100D300004F0CAFB04463B480CC8204604F0F8FC0B
:100D40005C4A03C24648006804F0E8FD064637489E
:100D50000CC8304604F0B8FB044634480CC82046A2
:100D600004F0D6F8544A03C23D48006804F0D6FDAA
:100D700006462E480CC8304604F0A6FB04462B4815
:100D80000CC8204604F0D4FC4C4A03C200224FF0A9
:100D90008043264903C904F097FB494A03C2002156
:100DA000484A11605160484A11605160002047492B
:100DB00008600022354B1B4903C904F05DF9444A21
:100DC00003C200222F4B424903C904F07DFB0446B5
:100DD00014480CC8204604F0ABFC3E4A03C2002273
:100DE000264B3B4903C904F06FFB04460D4873E0F2
:100DF00004E80008E80100206A010020B3F5CABC3D
:100E0000BBAFD6D0000000005142000818280020D7
:100E100089280008E8040020B4010020A401002073
:100E200000408F4060000020B001002090000020B2
:100E3000A801002078000020AC01002080000020E4
:100E4000B8010020BC010020EC010020B00000200F
:100E5000C0000020B800002000001040AE47613EF6
:100E600024020020000014403D0A573E00001840B4
:100E7000CDCC4C3E00001C405C8F423E0000204028
:100E8000EC51383E000022407B142E3E00002440EE
:100E90000AD7233E000026409A99193E900100206F
:100EA000F80600204807002068000020700000209D
:100EB00070010020780100208001002088010020BE
:100EC000880000201002002000020020F401002011
:100ED00018010020C80000200CC8204604F028FC9F
:100EE0007D4A03C200227D4B7D4903C904F0ECFA20
:100EF00004467C480CC8204604F01AFC7A4A03C217
:100F000000227A4B764903C904F0DEFA044675489C
:100F10000CC8204604F00CFC754A03C20022754B35
:100F20006F4903C904F0D0FA04466E480CC8204645
:100F300004F0FEFB704A03C20022704B684903C9EB
:100F400004F0C2FA044667480CC8204604F0F0FBDF
:100F50006B4A03C200226B4B614903C904F0B4FA27
:100F6000044660480CC8204604F0E2FB664A03C20F
:100F700000224FF080435A4903C904F0A5FA044601
:100F800058480CC8204604F0D3FB604A03C2002234
:100F90005F4B534903C904F097FA044651480CC803
:100FA000204604F0C5FB5B4A03C2002213464C49AD
:100FB00003C904F089FA04464A480CC8204604F0E4
:100FC000B7FB554A03C20022514B454903C904F0FF
:100FD0007BFA044643480CC8204604F0A9FB4F4A5C
:100FE00003C200224FF080433D4903C904F06CFA6C
:100FF00004463C480CC8204604F09AFB484A03C209
:101000000022404B364903C904F05EFA04463548D5
:101010000CC8204604F08CFB424A03C20022374B26
:101020002F4903C904F050FA04462E480CC8204644
:1010300004F07EFB3C4A03C200222E4B284903C920
:1010400004F042FA044627480CC8204604F070FB1E
:10105000364A03C20022254B214903C904F034FA61
:10106000044620480CC8204604F062FB304A03C204
:1010700000221A4B1A4903C904F026FA04461948FB
:101080000CC8204604F054FB2A4A03C200222A4B13
:10109000134903C904F018FA044612480CC8204644
:1010A00004F046FB254A03C20022254B0C4903C924
:1010B00004F00AFA04460B480CC8204604F038FB3A
:1010C000204A03C201202049087000201F490870EF
:1010D0004870BDE8FC810000D000002000001C40EA
:1010E0001801002060000020D800002000001840F7
:1010F000E000002000001440E80000200000104044
:10110000F000002000000840F8000020000100204E
:101110000000F03F08010020100100202001002005
:10112000280100203001002038010020400100206B
:1011300048010020500100200000204058010020FC
:101140000000224060010020280200203C02002014
:1011500010B503460C46002103E013F8010B605460
:10116000491C9142F9DB012010BD2DE9F04FADF68D
:10117000040D0746884691464E460025FFF74EFB74
:101180004FEAD72B4FEACB2BC7F30A0ACAF5006404
:1011900004200090A64200D8B4B24BE04FF40062A5
:1011A00001A95846FFF7D4FF002508E00AEB050027
:1011B00001A9085CFF2800D003E0681C85B2A542A5
:1011C000F4DB00BFA5421FDA5846FFF7A3FA0090F0
:1011D0009DF80000042804D000200DF6040DBDE8A1
:1011E000F08F002507E018F8050005EB0A0101AAB9
:1011F0005054681C85B2A542F5DB4FF4006201A98A
:10120000584600F01DF804E022464146384600F0FA
:1012100017F8A64200D10EE00BF5006B4FF0000A64
:10122000A0442744361BB6F5006F02D94FF4006482
:1012300000E0B4B2B2E700BFFFF7ACFA0120CCE7A0
:10124000F8B506460C46154604200090002708E035
:1012500021883046FFF7B6FA0090B81C87B2B61C5A
:10126000A41CAF4203DA9DF800000428F0D0284601
:10127000F8BD70B588B005460E46144600200790AC
:1012800006900590019002900390049005F00100F3
:10129000B8B104F00100A0B1681E012207A9FFF750
:1012A00057FF30788DF81D00681E022207A9FFF74E
:1012B0005CFF022C4ED9621E711C681CFFF755FFA3
:1012C00048E005F00100A8B904F0010090B1281928
:1012D000012206A9FFF73CFF2246314601A8FEF78E
:1012E000B5FF9DF8180001A90855621C2846FFF7B4
:1012F0003CFF2FE005F0010008B304F00100F0B955
:10130000681E012205A9FFF723FF2819012206A95B
:10131000FFF71EFF9DF814008DF8040022463146A9
:101320000DF10500FEF792FF9DF8181001AA601C50
:101330001154681EA21C01A9FFF717FF0AE005F06F
:10134000010038B904F0010020B922463146284690
:10135000FFF70BFF012008B070BD000030B5002280
:101360008B071C0F0F2303FA04F20B4B8C1053F85E
:1013700024309343084C8D1044F8253023468C10BC
:1013800053F824308C07240F00FA04F42343024C52
:101390008D1044F8253030BD080001402DE9F041A2
:1013A000024600250026002000230024002791F893
:1013B00003C00CF00F0591F803C00CF0100CBCF149
:1013C000000F03D091F802C04CEA050591F800C067
:1013D000BCF1000F31D0146800202BE04FF0010C5D
:1013E0000CFA00F3B1F800C00CEA03069E4220D1CB
:1013F00083004FF00F0C0CFA03F7BC4305FA03FC13
:101400004CEA040491F803C0BCF1280F06D14FF058
:10141000010C0CFA00FCC2F814C00AE091F803C0F9
:10142000BCF1480F05D14FF0010C0CFA00FCC2F8DA
:1014300010C0401C0828D1D31460B1F800C0BCF122
:10144000FF0F34DD546800202EE000F1080C4FF04F
:10145000010808FA0CF3B1F800C00CEA03069E423A
:1014600021D183004FF00F0C0CFA03F7BC4305FAAF
:1014700003FC4CEA040491F803C0BCF1280F05D129
:1014800000F1080C08FA0CF8C2F8148091F803C0B7
:10149000BCF1480F07D100F1080C4FF0010808FA21
:1014A0000CF8C2F81080401C0828CED35460BDE868
:1014B000F0810246002093680B400BB1012000E050
:1014C0000020704741617047016170472DE9F0418C
:1014D00006460F4614461D46DDF8188026E0102CFF
:1014E00006D143462A463946304600F027F813E035
:1014F000182C06D143462A463946304600F094F867
:101500000AE0202C06D143462A463946304600F0F0
:101510000BF901E0BDE8F0813019C6B2C4F18000DA
:10152000B04202DA00263819C7B2AD1C287800286C
:10153000D5D100F047FC00BFECE700002DE9FF4FDC
:1015400083B080468946924661200190002562E082
:1015500005EB0510334911F810009AF80010884285
:1015600057D105EB05102F4901EB400040789AF860
:10157000011088424DD1002448E0069840B105EBA7
:101580000510284901EB4000801C005D029009E035
:1015900005EB0510234901EB4000801C005DC043B2
:1015A000C0B2029000262DE0802030410299084010
:1015B00098B1274604EBD77209EB6202D1B2A34679
:1015C00004EBDB725210A4EB420208EBC20232447D
:1015D000D0B2012200F098FC12E0274604EBD7724B
:1015E00009EB6202D1B2A34604EBDB725210A4EB0A
:1015F000420208EBC2023244D0B2002200F084FC66
:10160000701CC6B2082ECFDB601CC4B2202CB4DB29
:1016100004E0681CC5B20198854299DB00BF07B0A1
:10162000BDE8F08FCC6600082DE9FE4F07468846DE
:1016300091469B460120029000256DE005EB850058
:1016400000EB4510374911F8100099F80010884256
:1016500060D105EB850000EB4510324901EB4000FD
:10166000407899F80110884254D100244FE0BBF132
:10167000000F0AD005EB850000EB4510294901EB6E
:101680004000801C10F804A00BE005EB850000EB87
:101690004510244901EB4000801C005DC04300F070
:1016A000FF0A00262FE08020304100EA0A00A0B1A6
:1016B000032094FBF0F04044C0B20190032094FB5F
:1016C000F0F100FB114007EBC0003044C0B2012232
:1016D0000090019900F018FC13E0032094FBF0F057
:1016E0004044C0B20190032094FBF0F100FB114094
:1016F00007EBC0003044C0B200220090019900F016
:1017000003FC701CC6B2082ECDDB601CC4B2482C92
:10171000ADDB04E0681CC5B2029885428EDB00BFD9
:10172000BDE8FE8FAE7300082DE9FF4F83B0804601
:101730008946924601200190002566E005EB851060
:10174000354911F810009AF8001088425BD105EB7A
:101750008510314901EB400040789AF80110884229
:1017600051D100244CE0069840B105EB85102A4980
:1017700001EB4000801C005D029009E005EB851044
:10178000254901EB4000801C005DC043C0B20290BF
:10179000002731E08020384102990840A8B1264650
:1017A000E21704EB927209EBA202D1B2A346E21750
:1017B00004EB92729210A4EB820208EBC2023A444C
:1017C000D0B2012200F0A0FB14E02646E21704EBA1
:1017D000927209EBA202D1B2A346E21704EB927215
:1017E0009210A4EB820208EBC2023A44D0B200226B
:1017F00000F08AFB781CC7B2082FCBDB601CC4B298
:10180000802CB0DB04E0681CC5B20198854295DBF2
:1018100000BF07B0BDE8F08FF873000810B50620D0
:10182000FEF7C4FE63284FDC0620FEF7BFFE00284B
:101830004ADD0620FEF7BAFE244908800878FEF744
:1018400025FE224908800520FEF7B0FE1F4988705A
:101850008878FEF71BFE1D4988700420FEF7A6FE5F
:101860001A49C870C878FEF711FE1849C8700320DD
:10187000FEF79CFE154908710879FEF707FE13492B
:1018800008710220FEF792FE10494871084640791F
:1018900000F03F0048714879FEF7F8FD0B494871A8
:1018A0000120FEF783FE094988718879FEF7EEFD75
:1018B000064988710020FEF779FE0449C871C8798D
:1018C000FEF7E4FD0149C87110BD0000F0020020E0
:1018D00010B54FF4165002F007FA10BD30B50346AC
:1018E0000C4600210020002204E0064DAD5C294496
:1018F000551CEAB2A242F8DB01F1A505E918C9437B
:10190000C8B230BD2021002000BFFEE708B501218C
:10191000082001F0F1FB4FF48060ADF800000320D7
:101920008DF8020014208DF8030069460848FFF77F
:1019300035FD4FF40060ADF8000003208DF8020083
:1019400014208DF8030069460148FFF727FD08BD04
:10195000000C014070B508250024280212490860D7
:1019600016E06006040E4FF480600F49091D086000
:1019700000F0AEF84FF480600B49086000F0A8F862
:1019800009480838006800F4006008B144F0010418
:10199000281EA5F10101CDB2E3D14FF480600249C8
:1019A000091D0860204670BD100C014070B504464A
:1019B00008251DE04FF480601249086000F088F8A7
:1019C00004F0800028B14FF400600E49091F086040
:1019D00003E04FF400600B4908606006040E00F05D
:1019E00077F84FF480600749091F086000F070F82D
:1019F000281EA5F10101CDB2DCD14FF48060014970
:101A0000086070BD140C014010B54FF480600C49A3
:101A1000086000F05DF84FF400600949086000F0CC
:101A200057F84FF400600649091D086000F050F8AF
:101A30004FF480600249091D086000F049F810BDAC
:101A4000100C014010B54FF400600949086000F027
:101A50003FF84FF480600649091F086000F038F82D
:101A60004FF400600249091F086000F031F810BD12
:101A7000140C014010B500244FF480601349086035
:101A800000F026F84FF400601049091F086000F0CC
:101A90001FF84FF480600D49091F086000F018F826
:101AA00007E0601CC4B2FA2C03DDFFF7CBFF002077
:101AB00010BD06480C38006800F400600028F0D122
:101AC0004FF48060014908600120F1E7140C0140E7
:101AD000052001E0411EC8B20028FBD1704700007C
:101AE00010B540210748FFF7EFFC80210548FFF7BC
:101AF000EBFC80210348FFF7E5FC40210148FFF79C
:101B0000E1FC10BD000C014010B540210548FFF775
:101B1000DBFC80210348FFF7D5FC80210148FFF75B
:101B2000D3FC10BD000C014010B540210348FFF765
:101B3000CBFC40210148FFF7C5FC10BD000C014063
:101B400010B5002002F03CF8012002F039F8022024
:101B500002F036F8FEF7A6FC10BD10B5044614B12D
:101B6000012C0AD104E00121022002F049F805E02D
:101B70000021022002F044F800E000BF00BF10BDC9
:101B800010B50948007801280DD1084800780328CD
:101B900009D10648037802220549DE2000F054F8F6
:101BA000044803F057F910BD800300208303002090
:101BB0003C0200209807002008B501F0BDFA03F0B0
:101BC00069F803F067F9FFF7BBFFFEF7DDFC4FF4A0
:101BD000E13002F0E9F84FF4614002F031F84FF4DF
:101BE000E13002F039F9FFF773FE03F033F801F04A
:101BF000DDFC00F00BF9002000F0D0F801200DA36F
:101C00001022082100902020FFF760FC01210C48E1
:101C100002F0D6FC1A210A4802F0D2FC0120094940
:101C2000087001F0FBFD0120FFF797FFFEF7DEFED5
:101C300008BD0000D5FDD4DABFAABBFA0000000041
:101C4000FD020020800300202DE9F0478EB00746FA
:101C5000884615469946002455222146641C01A851
:101C6000425405F10C00C2B22146641C01A8425442
:101C70002B4802782146641C01A8425428488278E7
:101C80002146641C01A842542548C2782146641CA0
:101C900001A84254224842792146641C01A84254BA
:101CA0001F4882792146641C01A842541C48C2790D
:101CB0002046611CCCB201A90A542046611CCCB25A
:101CC00001A901F800902046611CCCB201A90F5473
:101CD000002D0CDD002608E018F806202046611CC7
:101CE000CCB201A90A54701CC6B2AE42F4DB214644
:101CF00001A8FEF72DFC82462046611CCCB201A94A
:101D000001F800A0AA222046611CCCB201A90A5405
:101D1000214601A802F08AFC00240EB0BDE8F0873D
:101D2000F002002000BFFEE77047000070B5002100
:101D300000230F22C47804B3154C246804F4E06433
:101D4000C4F5E064210AC1F10403CA40447804FAEE
:101D500003F184781440214309010E4C0678A15503
:101D6000047804F01F050124AC4005786D11AD0026
:101D700005F1E025C5F8004109E0047804F01F05ED
:101D80000124AC40044D0678761145F8264070BD1C
:101D90000CED00E000E400E080E100E010B5044656
:101DA00034B1FF224FF400710548FEF794FA04E0C5
:101DB0004FF400710248FEF796FA00F003F810BDE8
:101DC000E825002070B500241BE004F1B0000021DC
:101DD00000F0DAF80021084600F0D6F800211020C3
:101DE00000F0D2F8002508E005EBC411064A505C6B
:101DF000012100F0C9F8681CC5B2802DF4DB601C1D
:101E0000C4B2042CE1DB70BDE825002010B500F061
:101E100061F8C82002F060FF0021AE2000F0B4F8A5
:101E20000021402000F0B0F80021B02000F0ACF814
:101E30000021C82000F0A8F80021812000F0A4F8BB
:101E40000021FF2000F0A0F80021A12000F09CF864
:101E50000021A62000F098F80021A82000F094F8B6
:101E600000211F2000F090F80021D32000F08CF812
:101E70000021084600F088F80021D52000F084F801
:101E80000021F02000F080F80021D92000F07CF83B
:101E90000021222000F078F80021DA2000F074F808
:101EA0000021022000F070F80021DB2000F06CF827
:101EB0000021492000F068F800218D2000F064F82E
:101EC0000021142000F060F80021AF2000F05CF841
:101ED00010BD000008B50121082001F00DF9C02057
:101EE000ADF8000010208DF8030003208DF80200EB
:101EF00069460448FFF752FAC0210248FFF7E4FAA6
:101F000008BD0000000C0140F0B503461446E4B1E2
:101F1000CD1701EB5575ED1003EBC515194E755D29
:101F20000A46CE1701EB5676F610A1EBC60701263E
:101F3000BE40F6B235430846CE1701EB5676F61092
:101F400003EBC6160F4FBD551AE0CD1701EB5575C3
:101F5000ED1003EBC5150B4E755D0A46CE1701EB70
:101F60005676F610A1EBC6070126BE40B5430846DB
:101F7000CE1701EB5676F61003EBC616014FBD5592
:101F8000F0BD0000E825002070B504460D461DB1E7
:101F9000E0B202F009FE02E0E0B202F0EFFD70BD37
:101FA00008B51B480078D0B901201949087001F024
:101FB00035FC0020FFF7F2FE012016A310220821B5
:101FC00000902020FFF782FA002015490870154B79
:101FD00000224FF47A71144802F012FF13E001203E
:101FE00001F01CFC0020FFF7D9FE01200FA31022F6
:101FF000082100903020FFF769FA002302220D49E2
:102000001046FFF721FE0C4802F024FF08BD000037
:1020100080030020D5FDD4DABFAABBFA000000007F
:102020003502002075420008A0040020B4FDBBFA70
:10203000000000003C0200203028002038B51F4A74
:102040001F4B204903C903F03FFA04461D480CC842
:10205000204602F05DFF1C4A03C21C48D0E906413D
:1020600019480CC8204603F0F3F905D81848007841
:10207000401C1749087002E00020154908701448F8
:102080000078782819DB0020114908701149087080
:1020900011480378022211491046FFF7D5FD0020B0
:1020A000FFF77CFE01200EA31022082100903020B3
:1020B000FFF70CFA0C4802F0CDFE38BD295C8FC248
:1020C000F528CC3F6000002088030020F820002085
:1020D0008403002080030020830300203C020020B2
:1020E000B4FDBBFA0000000000280020704700008B
:1020F00008B5124802F0AEFE1A21114802F060FA4B
:10210000002010490870FFF749FE0F4800780128A9
:102110000AD10EA31022082100900020FFF7D6F963
:1021200000200949087007E001200DA310220821B2
:1021300000901820FFF7CAF908BD000048280020C9
:10214000FD020020810300203E020020B5BCB3F652
:10215000C9F3BCC6CEC4BCFECDEAB3C900000000C2
:10216000D3C3BBA7D2D1B5C7C2BC00002DE9FC4187
:102170000446F6480078012859D1F548007801282E
:1021800055D0204603F0CAFB05460E46F148F249F9
:10219000097800EBC100D0E900733A462846314681
:1021A00003F090FA11D2EC480078401CEA4908701C
:1021B000204603F0B3FBE74AE74B1B7802EBC30270
:1021C00003C20020E549087016E0204603F0A6FB94
:1021D00005460E46DF48E049097800EBC100D0E92A
:1021E00000733A462846314603F09EF804D0DB4897
:1021F0000078401CD9490870D8480078032804D1D9
:102200000020D5490870D5490870D34800780228C5
:102210000DDD0120CE4908700020CC490870012056
:10222000CF4908700020CC490870CE490870C848D2
:10223000007801284DD1204603F070FB05460E467C
:10224000C948CA49097800EBC100D0E900733A4691
:102250002846314603F0FCF811D8C4480078401CE9
:10226000C2490870204603F059FBBF4ABF4B1B7898
:1022700002EBC30203C20020BD49087016E02046ED
:1022800003F04CFB05460E46B748B849097800EB09
:10229000C101D1E900733A462846314603F044F8BB
:1022A00004D0B3480078401CB1490870B0480078A9
:1022B000032804D10020AD490870AD490870AB482F
:1022C0000078032805DD0220A14908700020A749F5
:1022D0000870A848007820B101287DD002287CD160
:1022E000AEE19B48007801282AD1204603F016FB76
:1022F0000546A1480CC8284602F00AFE9E4A03C2C1
:102300009E480068401C9D49086096480078002857
:1023100015D10120934908700020FFF73FFD0120EF
:1023200097A31022002100902020FFF7CFF8012072
:1023300096A31022114600903020FFF7C7F87AE0EC
:1023400083480078022876D18C480068322853DD13
:102350008A48006803F051F805462A460B4686492C
:1023600003C902F089FE8B4A03C200228A4B8949C5
:1023700003C903F0A9F8054603F012F8874908607D
:1023800000208749087085480068000C4870834821
:102390000088000A887083480078C8700422824848
:1023A000FEF7E3FE40F2DC5002F096FC0020FFF75F
:1023B000F5FC01207DA31022002100901046FFF7BC
:1023C00085F801207CA31022114600901046FFF7EB
:1023D0007DF80020684A01E02EE019E210605060AC
:1023E0006649086001206349087000205849087058
:1023F0000120564908701EE00020FFF7CFFC0120A5
:1024000070A31022002100901046FFF75FF8012012
:1024100070A31022114600901046FFF757F80021D4
:10242000554A1160516000205449086051490870B4
:10243000012046490870ECE14548007801282AD17E
:10244000204603F06BFA05464B480CC8284602F0BC
:102450005FFD494A03C249480068401C474908607B
:1024600040480078002815D101203E49087000201E
:10247000FFF794FC012042A31022002100902020AD
:10248000FFF724F8012041A31022114600903020CC
:10249000FFF71CF8D3E02E4800780228FAD137481D
:1024A0000068282851DD3548006802F0A6FF05467F
:1024B0002A460B46304903C902F0DEFD484A03C2F2
:1024C0000022354B464903C902F0FEFF054602F0E3
:1024D00067FF44490860002031490870414800689E
:1024E000000C48703F480088000A88703D4800781A
:1024F000C87004222C480838FEF737FE40F2DC5042
:1025000002F0EAFB0020FFF749FC012036A310226D
:10251000002100901046FEF7D9FF012035A31022BC
:10252000114600901046FEF7D1FF0020124A1060BD
:1025300050601249086002200E49087000200449CA
:10254000087001200149087079E059E02A02002052
:1025500029020020F8060020080200202C0200209A
:1025600050000020510000204807002009020020F0
:102570002D0200203702002000020020F40100207C
:10258000B2C9BCAFCAFDBEDDD6D00000C7EBC9D40E
:10259000BAF300008000002000408F40AC01002012
:1025A000B4010020A801002014E80008D2D1CDEA2F
:1025B000B3C9B8B4D3A10000C7EBBFAACABCC9A8AD
:1025C000C3E80000B2C9BCAFCAFDBEDDCAA7B0DC1B
:1025D00000000000C7EBD4D9B4CEB8B4D3A100003A
:1025E00090000020B0010020D2D1CDEAB3C9C9A823
:1025F000C3E80000C7EBBFAACABCB4F2D3A1000075
:102600000020FFF7CBFB0120AFF24803102200218E
:1026100000901046FEF75AFF01207FA310221146BA
:1026200000901046FEF752FF00207E4A1060506076
:102630007D49086001207D4908707D490870E8E007
:102640007C48007801282CD1204603F067F9054624
:1026500074480CC8284602F05BFC724A03C27248F8
:102660000068401C7049086073480078002817D142
:102670000120714908700020FFF790FB0120AFF2A4
:1026800000131022002100902020FEF71FFF0120E0
:10269000AFF208131022114600903020FEF716FF0B
:1026A000B5E0644800780228FAD15F48006828281D
:1026B0007EDD5D48006802F0A0FE05462A460B4616
:1026C000584903C902F0D8FC5C4A03C200225C4BA3
:1026D0005A4903C902F0F8FE054602F061FE594965
:1026E000086000205849087056480068000C48707F
:1026F00054480088000A887052480078C870042244
:102700005248FEF732FD4848006802F076FE054662
:1027100000224FF0804302F0AFFC074602F0C6FBF8
:102720004B4908600846006803F0F8F805460022A7
:10273000434B02F0C9FE074602F032FE45490860ED
:1027400000204549087043480068000C4870414823
:102750000088000A88703F480078C87004223B480F
:102760000C30FEF702FD0020FFF718FB01203BA311
:102770001022002100901046FEF7A8FE01203AA387
:102780001022114600901046FEF7A0FE40F2DC50E9
:1027900002F0A2FAAA200190012201A92B480C38CC
:1027A000FEF767FD012080F3138800BF00BF00E043
:1027B0000DE03048006800F4E0602F490843001D38
:1027C0002C490860BFF34F8F00BF00BFFEE7002019
:1027D000FFF7E4FA0120AFF2142310220021009049
:1027E0001046FEF773FE012024A31022114600902C
:1027F0001046FEF76BFE00200A4A106050600A493E
:10280000086002200949087001200949087000E0A9
:1028100000BF00BFBDE8FC81C7EBD4D9B4CEC9A8C6
:10282000C3E8000000020020F4010020370200206D
:102830002A020020290200205100002078000020F8
:1028400000408F40A8010020B401002010E80008DB
:10285000EC010020BC010020B8010020D2D1CDEA5B
:10286000B3C9B4F2D3A10000D5FDD4DAD6D8C6F4EA
:10287000D6D000000CED00E00000FA05C7EBD4D97B
:10288000B4CEB4F2D3A1000010B5054B00224FF432
:102890007A71044802F0B4FA034802F0DBFA10BD82
:1028A00075420008A0040020E80400202DE9F04F44
:1028B00093B0B04800224FF08043D0E90641204653
:1028C00002F000FF32D2AC48007800282FD1A9498D
:1028D000D1E90601A94A03C2A848A94AA94BD0E9EF
:1028E0000061304602F0F0FD0446A448D0E90063E0
:1028F0003246204602F01CFFA34A03C29F48A04A6A
:10290000A04BD0E90061304602F0DEFD04460D46E2
:102910009A49D1E900633246294602F0F9FA9B4A06
:1029200003C295480078401C9349087020E1914902
:10293000D1E90601914A904B1B7802EBC30203C216
:102940008E488D49097800EBC100D0E9004322464A
:102950008D4903C902F07CFD7ED2884886490978FA
:1029600000EBC100D0E9004188480CC8204602F0C5
:102970006FFDF1D280480078401C7F4908700846FE
:1029800000780C28D2DB824802F064FA00207A49F1
:1029900008707A48D0E902432246D0E90061304607
:1029A00002F0B6FA80467548D0E904432246404614
:1029B00002F0AEFA82468B467049D1E906432246C0
:1029C000594602F0A5FACDE900016C48D0E9084368
:1029D0002246009802F09CFACDE902016748D0E94E
:1029E0000A432246029802F093FACDE904016348B3
:1029F000D0E90C432246049802F08AFACDE9060198
:102A00005E49D1E90E432246079902F081FACDE9E9
:102A100008015A49D1E910432246099902F078FA8F
:102A2000CDE90A015549D1E9124322460B9902F03A
:102A30006FFACDE90C015148D0E9144322460C98B5
:102A400002F066FACDE90E014C48D0E91643224661
:102A50000E9802F05DFA00E084E000224D4BCDE9D3
:102A6000100102F009FB4C4A03C200224B4B4A49B9
:102A700003C902F029FD044602F092FC48490860AF
:102A800000204849087046480068000C48704448D7
:102A90000088000A887042480078C87004224248C2
:102AA000FEF763FB0022414B3B4903C902F00CFDDA
:102AB0003F4A03C2324A334B374903C902F004FD8F
:102AC000044635480CC8204602F022FA394A03C2AF
:102AD0002B4A2C4B304903C902F0F6FC04462E4821
:102AE0000CC8204602F014FA334A03C2244A254B8C
:102AF000294903C902F0E8FC044627480CC82046CF
:102B000002F006FA2D4A03C21D4A1E4B224903C990
:102B100002F0DAFC044620480CC8204602F008FE09
:102B2000274A03C201202749087000201249087073
:102B300025490870012025490870FDF7EBFC40F29B
:102B4000DC5002F0C9F80020FDF7E4FC0020FFF79C
:102B500025F901201EA31022082100901820FEF75D
:102B6000B5FC05E000200449087013B0BDE8F08F03
:102B700000BFFAE7F82000203602002038060020C7
:102B80009A9999999999B93FC0010020C8010020EC
:102B900058040020000028406000002000408F40C2
:102BA000A4010020B401002008E80008000026402D
:102BB00090010020F806002048070020680000204F
:102BC00070000020E9010020370200202A020020C6
:102BD000C7EBBFAACABCB8B4D3A100002DE9F14F1E
:102BE00082B0FD480078012861D1FC4800780128B6
:102BF0005DD0029802F092FE04460D46F848F9496D
:102C0000097800EBC100D0E900633246204629462E
:102C100002F058FD11D2F3480078401CF1490870C9
:102C2000029802F07BFEEE4AEE4B1B7802EBC302E9
:102C300003C20020EC49087016E0029802F06EFE14
:102C400004460D46E648E749097800EBC101D1E9A1
:102C5000006332462046294602F066FB04D0E24873
:102C60000078401CE0490870DF480078032804D150
:102C70000020DC490870DC490870DA480078022836
:102C800015DD0120D54908700020D3490870D549C9
:102C900008700120D54908700020FFF77FF8012057
:102CA000D3A31022082100902020FEF70FFCCB4870
:102CB000007801284FD1029802F030FE04460D46FC
:102CC000CD48CE49097800EBC100D0E90063324617
:102CD0002046294602F0BCFB11D8C8480078401CA9
:102CE000C6490870029802F019FEC34AC34B1B780C
:102CF00002EBC30203C20020C149087016E002982B
:102D000002F00CFE04460D46BB48BC49097800EBB6
:102D1000C100D0E9006332462046294602F004FB98
:102D200004D0B7480078401CB5490870B448007812
:102D3000032804D10020B1490870B1490870AF4898
:102D40000078022807DD0220A44908700020AD4960
:102D50000870AA490870029802F0E0FD0446AA48EB
:102D60000CC8204602F0AEFC7DD2A84800780028AE
:102D700055D1029802F0D2FD0446A5480CC8204661
:102D800002F0A0FC4BD2002000F048FD0020A14939
:102D90000870FFF703F801209FA310220021009084
:102DA0002020FEF793FB01209EA3102211460090E5
:102DB0002020FEF78BFB002302229D491046FEF7E0
:102DC00043FF9C4B002247F230519B4802F018F819
:102DD0000120FDF79FFB4FF4966001F07DFF00207E
:102DE000FDF798FB4FF47A7001F076FF0120FDF7B4
:102DF00091FB4FF4966001F06FFF0020FDF78AFB16
:102E00004FF47A7001F068FF0120FDF783FB4FF467
:102E1000966001F061FF0020FDF77CFB44E16F4804
:102E20000078012820D185480068401C834908604B
:102E3000029802F073FD044681480CC8204602F057
:102E400067F87F4A03C2029802F068FD04467D4895
:102E50000CC8204602F036FCE0D27B480068401CDB
:102E60007949086020E1A4E05C4800780228D5D1C7
:102E70007248006802F0C1FA044622460B467049C7
:102E800003C902F0F9F86E4A03C26D486D490CC8D7
:102E900003C902F0DDFA03D202206C49087002E097
:102EA00001206A49087068480068022816DD6648F3
:102EB000006802F02DFE814665480168484602F030
:102EC00065FD044602F02AFD07460022614B02F030
:102ED000FBFA054601F0EAFF5F4908605E480068BA
:102EE00002F01CFD804600225C4B02F011F8064601
:102EF00002F056FA00F0FF0B584602F021FE82461F
:102F000055480168504602F02FFF09D25248006828
:102F100002F004FD06460022504B01F0F9FF03E0E9
:102F20004D48006802F0FAFC044602F039FA4C49B8
:102F3000088008460088401E088008460088000A6D
:102F40008DF80400084600788DF805003F480078A9
:102F5000022816D14348007801280AD14248037854
:102F6000022201A90520FEF76FFE00203D490870EE
:102F70000EE03D480378022201A90620FEF764FE18
:102F800006E039480378022229490720FEF75CFE53
:102F9000002012490870354B0122C821344801F045
:102FA0002FFF344B012240F6B831334801F028FF9F
:102FB0007AE04FF07E51029802F0D6FE65D2029878
:102FC00002F0ACFC044612480CC8204602F040FA5D
:102FD0005BD20E48007851E02A020020290200202E
:102FE000F8060020080200202C02002050000020DB
:102FF000B9A4D7F7D6D00000480700200902002066
:103000002D0200202B0200207801002080030020E8
:103010007001002015000020B7C7B7A8B2D9D7F7B4
:1030200000000000D5FDD4DAB9D8BBFA00000000DA
:103030003C020020A11F000888040020F4010020A9
:103040005800002088000020FC0100202F020020F2
:10305000EC0100200000F03FF00100200000E03F04
:10306000EA0100203B02002083030020A54A00085B
:1030700000050020094A0008D0040020A0B9002063
:103080000A4908600A4908700EE0012009490870E1
:103090000020FEF783FE0120AFF274031022082106
:1030A00000903020FEF712FABDE8FE8F9801002054
:1030B000A00100203402002029B1064AD26902434F
:1030C000044BDA6104E0034AD2698243014BDA61BE
:1030D000704700000010024029B1064A12690243FD
:1030E000044B1A6104E0034A12698243014B1A61DE
:1030F000704700000010024029B1064A926902435D
:10310000044B9A6104E0034A92698243014B9A613D
:10311000704700000010024029B1064AD2680243FD
:10312000044BDA6004E0034AD2688243014BDA6060
:10313000704700000010024010B500F031F8012087
:1031400000F0F0F800BF212000F0BAF80028FAD013
:103150001020FDF729FB0220FDF754FB002000F0B2
:10316000D5F8002000F0F0F84FF4806000F0E0F8AF
:103170004FF46011002000F0F9F8012000F0F0F8A1
:1031800000BF392000F09CF80028FAD0022000F09F
:10319000FBF800BF00F0B2F80828FBD110BD00001A
:1031A0000F48006840F001000D490860084640687B
:1031B0000C4908400A494860084600680A49084026
:1031C000074908600846006820F480200860084627
:1031D000406820F4FE0048604FF41F00886070478C
:1031E000001002400000FFF8FFFFF6FE30B500219E
:1031F0000022002400232D4D6D6805F00C0121B143
:10320000042905D0082923D105E0294D056022E0D5
:10321000274D05601FE0254D6D6805F47012234DA4
:103220006D6805F48034022505EB92421CB9214DEE
:10323000554305600BE01D4D6D6805F400351DB16B
:103240001C4D5543056002E0194D5543056002E0F1
:10325000174D056000BF00BF144D6D6805F0F0010B
:103260000909154D6B5C0568DD4045600F4D6D68C3
:1032700005F4E061090A104D6B5C4568DD4085602E
:103280000A4D6D6805F46051C90A0B4D6B5C4568C9
:10329000DD40C560054D6D6805F44041890B074D63
:1032A0006B5CC568B5FBF3F5056130BD00100240ED
:1032B00000127A0000093D002500002035000020A2
:1032C00010B501460022002300204A11012A02D134
:1032D000094C236806E0022A02D1074C236A01E068
:1032E000054C636A01F01F02012494401C400CB19C
:1032F000012000E0002010BD00100240024840689C
:1033000000F00C0070470000001002400146002051
:10331000034A506820F0F0000843506070470000F6
:10332000001002400149086070470000000042425E
:1033300001460020034A506820F4E06008435060D2
:10334000704700000010024001460020034A506808
:1033500020F4605040EAC100506070470010024005
:103360000149086670470000000042420246002002
:10337000044B586820F47C1042EA01031843014BC7
:10338000586070470010024001460020034A506810
:1033900020F0030008435060704700000010024016
:1033A00008B528480078012830D12748007838BB74
:1033B00026480078012823D1002000F02FFA244865
:1033C0000378022223490A20FEF73EFC0020FEF784
:1033D000E5FC012020A31022002100902020FEF710
:1033E00075F801201FA31022114600902020FEF73F
:1033F0006DF81F4B002247F230511E4801F000FDCE
:103400000020104908701C49088019E01A480088FB
:10341000401C1949088008460088062810DD002055
:10342000088008490870FDF775F80020FEF7B6FC23
:10343000012012A31022082100903020FEF746F848
:1034400008BD0000D0020020D4020020500000205F
:10345000830300203C020020CEA5B9E6B2D9D7F7FD
:1034600000000000D5FDD4DAB9D8BBFA0000000096
:10347000B137000824040020CC020020B4FDBBFAC0
:103480000000000038B50446E07E00283ED1204808
:10349000007800283AD1FF20E0761E480088401CC2
:1034A0001C4908800846008802282FDD002008807B
:1034B0000120194908701948007890B91848007817
:1034C00018490870144800781749087013480078A4
:1034D00016490870164B01224FF4FA71154801F095
:1034E0008FFC0120FDF716F80020FEF757FC0120A5
:1034F00011A31022082100900020FDF7E7FF1348D8
:103500000378022212490820FEF79EFB002038BDF6
:103510004D000020CA020020D002002050000020F0
:1035200080030020D2020020D3020020D402002019
:10353000A13300082C210020BEAFB8E6C9E6C3DCE9
:10354000CEC4BCFEBFBFBDFC000000008303002052
:103550003C02002001461348134A12788154124855
:10356000007878B90F48104A1278805C5A2803D046
:1035700000200D4A107012E00B480078401C0A4AE7
:1035800010700CE008480078401C074A1070104684
:103590000078222803DB00201070024870470020CA
:1035A000FCE7000044210020EE02002010B5044B8F
:1035B000012240F6B831034801F022FC10BD0000A2
:1035C000ED350008BC2000201CB50020064908701D
:1035D000A5208DF800002C208DF8010002216846FE
:1035E00001F070F81CBD0000A70200201CB50120EE
:1035F00006490870A5208DF8000073208DF80100A1
:103600000221684601F05EF81CBD0000A702002000
:103610002DE9F05F4FF0000BD9464F48007810B10C
:1036200001286FD16FE04D48007800064B4949787A
:1036300000EB01404949897800EB01204749C978EE
:1036400000EB0109B9F1004F06D96FEA090A5046AB
:1036500002F076FA044603E0484602F071FA0446A6
:103660003F48008802F06CFA0546214602F0B0FAA5
:1036700004464FF09E41204602F088F90446204659
:1036800002F04CF90746374A374B01F0F5FC054686
:1036900001F00CFC0446204602F040F90546334A8E
:1036A000334B01F0E9FC074601F000FC04462046DC
:1036B00002F034F905464FF066322E4B02F002F864
:1036C00007D22D4B0022A0212C4801F099FBBDE828
:1036D000F09F204602F022F9294AC2E90601294852
:1036E0000078012802D12046FEF740FD26480078E8
:1036F000012806D125480078AA2802D12046FFF7E4
:103700006DFA22E01AE002212620FEF7E7F8834650
:10371000124840781149097800EB012010490880CF
:1037200008460088002802DD194801F093FB124B7F
:103730000122A021114801F063FB06E00E4B01229B
:10374000A0210E4801F05CFB00BF00BF114801F052
:1037500081FB00BFBBE70000A70200202021002062
:10376000A0020020DF4F8D976E12F13F1D5A643B7F
:10377000DF4FD53F6699B940C93500082C2000209D
:10378000F8200020E901002015000020E8010020B9
:10379000BC2000207420002010B5034B0022012122
:1037A000024801F02DFB10BD1136000874200020E6
:1037B00008B512480078F8B911480088401C104933
:1037C000088008460088062816DD012000F026F84B
:1037D0000020FEF7E3FA01200AA31022082100903E
:1037E0002020FDF773FE0A4B0122C821094801F091
:1037F00007FB094801F02EFB08BD0000D0020020A5
:10380000CC020020D5FDD4DABFAABBFA000000002C
:10381000A54A0008000500202404002010B5044635
:1038200014B1012C10D107E00020094908700021D3
:10383000012000F0E5F908E00120054908700121A8
:10384000084600F0DDF900E000BF00BF10BD000039
:103850004C0000202DE9FC410446002500270026ED
:10386000E078DC287ED006DC052809D0DA280BD0E9
:10387000DB2878D11EE0DD2876D0DF28F9D1DCE026
:1038800001207C490870F2E01A217B4800F098FE84
:103890000020FEF783FA012078A31022082100906F
:1038A0001046FDF713FE002302227849DB20FEF7C5
:1038B000CBF9DCE06079217940EA01207449088085
:1038C00020798DF8040060798DF80500A079012831
:1038D0007ED11A216F4800F073FE01F0CAF92079F9
:1038E0006D496E4A127888546C480078401C6B49C8
:1038F00008705A206A490870A52048700020887016
:10390000C8704320087100204871F220887103209C
:10391000C871002008724872002506E0E81D215C8D
:10392000C01C5F4A1154681C85B2B5F57C7FF5DB7D
:1039300040F2FA315A48FCF719FE064605F10A0032
:10394000574A1654310A401C11544FF47F711046E7
:1039500000F036FE01F08DF9552051490870AA207B
:10396000487002E038E081E04CE000208870C870C8
:103970004020087100204871042088710020C8711F
:103980009DF8050008729DF80400487200208872B6
:10399000C872087348738873C8730874487488744D
:1039A000C874087548758875C87518213C48FCF7B7
:1039B000DDFD06463A490E76300A48761A21384827
:1039C00000F0FEFD3748037802223049002000E075
:1039D00001E0FEF739F94AE00020FEF7DFF90120A7
:1039E00031A31022082100901046FDF76FFDDB2067
:1039F00031490870314B002240F2DC51304801F06F
:103A0000FFF934E00020FEF7C9F901202DA31022B0
:103A1000002100900846FDF759FD01202DA310223A
:103A2000114600900020FDF751FD2D4B01224FF46F
:103A3000FA712C4801F0E4F919E00020FEF7AEF924
:103A4000012029A31022082100900020FDF73EFD4F
:103A500001202A490870002029490870174B0022CC
:103A60004FF4FA61164801F0CBF900E000BF00BF47
:103A7000BDE8FC813B0200205A020020D5FDD4DACB
:103A8000B5BCC8EBD6B8CEC6000000003C02002092
:103A90008E02002040020020B00B00203A020020DD
:103AA000000C002083030020D6B8CEC6B5BCC8EBFE
:103AB000CDEAB3C9000000007F03002049040008DC
:103AC00088040020B5BCB3F6C9F3BCC6CEC4BCFEA6
:103AD00000000000C7EBD1E9D6A4D6B8CEC60000DE
:103AE000811B000898070020B5BCB3F6C9F3BCC61B
:103AF000CEC4BCFECDEAB3C9000000003E020020E7
:103B00008003002001462B482B4A128881542A4802
:103B1000008878B92748284A1288805C552803D045
:103B20000020254A108043E023480088401C224A98
:103B300010803DE020480088022817D11D48807879
:103B40001C4A527840EA02201C4A10801A48008819
:103B5000401C194A108019480088B0F5806F27DD95
:103B60000020164A1080144A108021E01348008873
:103B7000401E114A128890420ED10E480E4A1288F9
:103B8000805CAA2804D100200B4A108009487047A5
:103B90000020094A10800BE007480088401C064AB4
:103BA000108010460088B0F5806F01DB0020108087
:103BB0000020ECE7B00700209002002092020020D5
:103BC00038B504460B4951F824000121FFF794FA57
:103BD000094830F81400ADF8000010208DF80300FB
:103BE00003208DF80200054951F824006946FDF7CD
:103BF000D5FB38BDCC5D0008DC5D00083C00002032
:103C000070B504460D4615B1012D12D108E00A4ADF
:103C100032F81410094A52F82400FDF753FC09E069
:103C2000054A32F81410054A52F82400FDF74CFCFE
:103C300000E000BF00BF70BDDC5D00083C0000205C
:103C400010B586B00446012144F20500FFF754FA8E
:103C5000234800F083FD4FF40070ADF814000320FA
:103C60008DF8160018208DF8170005A91D48FDF7DE
:103C700095FB4FF48060ADF8140004208DF8170018
:103C800005A91848FDF78AFB01940020ADF808004B
:103C9000ADF80A00ADF80C00ADF810000C20ADF83E
:103CA0000E0001A90E4800F003FE25208DF800004B
:103CB00002208DF8010001208DF802008DF803002C
:103CC0006846FEF733F8012240F22551044800F01F
:103CD000CAFD0121024800F035FD06B010BD00000C
:103CE000003801400008014010B586B004460121AB
:103CF0000520FFF701FA01214804FFF7DDF9284804
:103D000000F02CFD0420ADF8140003208DF81600FF
:103D100018208DF8170005A92248FDF73FFB082061
:103D2000ADF8140004208DF8170005A91D48FDF713
:103D300035FB01944FF48050ADF808000020ADF839
:103D40000A004FF48060ADF80C000020ADF81000C0
:103D50000C20ADF80E0001A9114800F0A9FD2620A5
:103D60008DF8000000208DF801008DF80200012080
:103D70008DF803006846FDF7D9FF012240F2244187
:103D8000074800F070FD012240F22551044800F080
:103D90006AFD0121024800F0D5FC06B010BD00000C
:103DA000004400400008014010B586B004460121DF
:103DB0001120FFF7A1F90121C804FFF77DF924487C
:103DC00000F0CCFC4FF48060ADF8140003208DF8B7
:103DD000160018208DF8170005A91E48FDF7DEFA19
:103DE0004FF40060ADF8140004208DF8170005A909
:103DF0001848FDF7D3FA01940020ADF80800ADF89B
:103E00000A00ADF80C00ADF810000C20ADF80E0063
:103E100001A90F4800F04CFD34208DF8000001206E
:103E20008DF8010003208DF8020001208DF80300B9
:103E30006846FDF77BFF012240F22551044800F05F
:103E400012FD0121024800F07DFC06B010BD00000B
:103E5000004C00400010014010B586B0044601211E
:103E60003120FFF749F901210805FFF725F923481B
:103E700000F074FC4FF48050ADF8140003208DF86E
:103E8000160018208DF8170005A91D48FDF786FAC1
:103E90000420ADF814008DF8170005A91948FDF7A6
:103EA0007DFA01940020ADF80800ADF80A00ADF8E5
:103EB0000C00ADF810000C20ADF80E0001A90F4861
:103EC00000F0F6FC35208DF8000001208DF801008F
:103ED00003208DF8020001208DF803006846FDF7ED
:103EE00025FF012240F22551044800F0BCFC0121CD
:103EF000024800F027FC06B010BD00000050004052
:103F000000100140001401407047000010B5092165
:103F1000054800F0F7FB0E21044800F0F3FB0448CD
:103F200000F098FF10BD0000D5020020DF02002045
:103F3000C403002010B500F001F810BD0CB500203E
:103F4000019000903348006840F4803031490860A7
:103F500000BF3048006800F4003000900198401C19
:103F60000190009818B90198B0F5A06FF1D12948D7
:103F7000006800F4003010B10120009001E0002042
:103F800000900098012843D12348006840F01000B9
:103F9000214908600846006820F0030008600846D0
:103FA000006840F0020008601A48406819494860FB
:103FB0000846406848600846406840F480604860B1
:103FC0000846406820F47C1048600846406840F489
:103FD000E81048600846006840F08070086000BF44
:103FE0000C48006800F000700028F9D009484068CB
:103FF00020F00300074948600846406840F002008E
:10400000486000BF0348406800F00C000828F9D160
:104010000CBD000000100240002002402DE9F04FCE
:104020008FB079480022794BD0E90641204601F053
:1040300049FB32D27648007800282FD17248D0E967
:104040000610744AC2E900101046734A734BD0E957
:104050000061304601F038FA04466E48D0E900634A
:104060003246204601F064FB6D4A03C269486A4A41
:104070006A4BD0E90061304601F026FA04466548F3
:10408000D0E900633246204600F042FF654A03C291
:104090005F480078401C5E490870B2E05A48D0E999
:1040A00006105C4A5A4B1B7802EBC302C2E90010AF
:1040B00058485749097800EBC100D0E9004322462F
:1040C000574903C901F0C4F97ED2524850490978D2
:1040D00000EBC100D0E9004152480CC8204601F075
:1040E000B7F9F1D24A480078401C4949087008469F
:1040F00000780A28D1DD4748D0E902432246D0E9BA
:104100000061304600F004FF80464248D0E9044395
:104110002246404600F0FCFE82463E48D0E9064377
:104120002246504600F0F4FECDE900013949D1E9BC
:1041300008432246019900F0EBFECDE90201354823
:10414000D0E90A432246029800F0E2FECDE90401DC
:104150003048D0E90C432246049800F0D9FECDE95E
:1041600006012C48D0E90E432246069800F0D0FE06
:10417000CDE908012749D1E910432246099900F009
:10418000C7FECDE90A012349D1E9124322460B9922
:1041900000F0BEFE0022244BCDE90C0100F06CFFC4
:1041A000224A03C200201A490870204820490CC83E
:1041B00003C901F04DF924D21E481C490CC803C99B
:1041C00001F046F91DD200E015E001201A490870FF
:1041D0001A49087000201A490870FDF7DFFD012018
:1041E00018A31022082100903020FDF76FF917481E
:1041F00000F030FE05E00020054908700FB0BDE872
:10420000F08F00BFFAE70000F82000200000F03F28
:1042100035020020180500209A9999999999B93F7B
:10422000C0010020C801002000002440E00100205F
:1042300070000020680000201500002028020020E7
:1042400080030020B4FDBBFA00000000B804002089
:1042500010B5054800F0FEFD044B012240F6C411E4
:10426000034800F0CDFD10BD18280020AD2800083F
:104270005804002010B5054800F0ECFD044B012265
:1042800040F2DC51034800F0BBFD10BDA00400204B
:104290001D400008B8040020042808D14FF0E02198
:1042A000096941F004014FF0E022116107E04FF08D
:1042B000E021096921F004014FF0E022116170470B
:1042C0007047000010B5084B01224FF4C871074831
:1042D00000F096FDFCF77CFB054B00224FF4FA61E1
:1042E000044800F08DFD10BD1D1800089403002047
:1042F0000D3F0008C403002010B51348006840F0CB
:1043000001001149086008464068104908400E49FC
:104310004860084600680E4908400B490860084696
:10432000006820F4802008600846406820F4FE0001
:1043300048604FF41F008860FFF7FCFD4FF00060FD
:104340000449086010BD0000001002400000FFF8A2
:10435000FFFFF6FE08ED00E008B502211048FDF76A
:10436000A8F8E0B90020FDF7F8FBFF20009001223B
:1043700069460C48FCF77DFF012080F3138800BFDD
:1043800000BF0948006800F4E06008490843001DC8
:1043900005490860BFF34F8F00BF00BFFEE708BDAF
:1043A0000010014004E800080CED00E00000FA05F0
:1043B00010B50121114800F064F8F0B101210F4857
:1043C00000F050F80E48046800BF04B914E02078EB
:1043D00068B16068401E6060606840B9607A10B182
:1043E000E068606001E000202070012020726069B8
:1043F00000B901E06469E8E700BF10BD00080040B3
:104400001C0000207FB505460C4601210420FEF764
:1044100053FEADF80850ADF804400020ADF80A0096
:10442000ADF8060001A90E4800F046F80122114639
:104430000B4800F037F81E208DF8000000208DF8A2
:10444000010003208DF8020001208DF8030068466A
:10445000FDF76CFC0121024800F007F87FBD000069
:1044600000080040CA430282704721B1028842F02E
:104470000102028004E002884FF6FE731A400280B7
:10448000704730B50246002000230024158A05EA53
:104490000103958905EA010413B10CB1012000E084
:1044A000002030BD1AB183890B43838102E08389E8
:1044B0008B43838170470000002202881D4B984285
:1044C0000ED01D4B98420BD0B0F1804F08D01B4B43
:1044D000984205D01A4B984202D01A4B984204D108
:1044E0004FF68F731A404B881A43174B984207D0E8
:1044F000164B984204D04FF6FF431A40CB881A431C
:1045000002808B8883850B8803850A4B98420BD0E9
:10451000094B984208D00E4B984205D00D4B98425B
:1045200002D00D4B984201D10B7A0386012383827E
:1045300070470000002C014000340140000400409E
:1045400000080040000C0040001000400014004033
:1045500000400140004401400048014070B540F275
:104560002551084800F055F958B1064800F00CFAFA
:10457000C5B22846FEF7EEFF044614B12046FEF70A
:1045800081FF70BD004C004070B540F225510A48D3
:1045900000F03FF970B1084800F0F6F9C5B22846BE
:1045A00000F0C0FB04462CB12046FCF757F9002070
:1045B0000249087070BD000000500040F802002061
:1045C00070B505460E46002404E0285D00F006F8AC
:1045D000601C84B2B442F8DB70BD000010B5044624
:1045E0002146064800F0D5F900BF4021034800F0FD
:1045F00003F90028F9D0204610BD0000005000400B
:1046000070B540F22551084800F003F958B106484A
:1046100000F0BAF9C5B22846FFF774FA044614B19F
:104620002046FFF717F970BD0038014070B5054608
:104630000E46002404E0285D00F006F8601CC4B2B9
:10464000B442F8DB70BD000010B5044621460648B0
:1046500000F09FF900BF4021034800F0CDF800288A
:10466000F9D0204610BD00000038014010B540F2DE
:104670002551114800F0CDF858B10F4800F084F9E9
:10468000C1B20E4802780078401C0C4B18700C48E0
:10469000815440F22441084800F0BBF858B1064864
:1046A0000088C4B20448001D0088C4B2FFF774F843
:1046B00000200249087010BD00440040C7020020DD
:1046C0002021002070B505460E46002404E0285D38
:1046D00000F006F8601CC4B2B442F8DB70BD000004
:1046E00010B504462146064800F053F900BF4021AA
:1046F000034800F081F80028F9D0204610BD0000E2
:104700000044004070B505460E46002404E0285DD4
:1047100000F006F8601CC4B2B442F8DB70BD0000C3
:1047200010B504462146064800F033F900BF402189
:10473000034800F061F80028F9D0204610BD0000C1
:10474000004C004021B1828942F40052828104E091
:1047500082894DF6FF731A408281704710B5044676
:104760002048844209D101218803FEF7D5FC0021AD
:104770004FF48040FEF7D0FC32E01B48844209D160
:1047800001214804FEF7A8FC00214FF40030FEF799
:10479000A3FC25E01548844209D101218804FEF7D5
:1047A0009BFC00214FF48020FEF796FC18E0104897
:1047B000844209D10121C804FEF78EFC00214FF488
:1047C0000020FEF789FC0BE00A48844208D1012151
:1047D0000805FEF781FC00214FF48010FEF77CFCF9
:1047E00010BD000000380140004400400048004077
:1047F000004C00400050004002460020B1F5007F10
:1048000000D100BF13880B400BB1012000E0002055
:10481000704770B50246002400230025002040F6B2
:104820006A16B14200D100BFC1F3421501F01F0367
:10483000012606FA03F3012D02D19689334006E0E2
:10484000022D02D1168A334001E0968A33400C12C1
:10485000012606FA04F41688344013B10CB1012085
:1048600000E0002070BDF0B50346002400260025BE
:10487000002040F66A17B94200D100BF1846C1F3C4
:10488000421401F01F06012707FA06F5012C01D199
:104890000C3004E0022C01D1103000E014301AB1C9
:1048A00007682F43076002E00768AF430760F0BD69
:1048B0002DE9F04786B005460E460024A24600BF0B
:1048C000A1460027B08900B100BF2F462C8A4CF6C4
:1048D000FF700440F08804432C82AC894EF6F3103C
:1048E0000440B08831890843718908430443AC818E
:1048F000AC8A4FF6FF400440B0890443AC8201A863
:10490000FEF774FC1F48874202D1DDF810A001E0D9
:10491000DDF80CA0A88900F4004040B10AEBCA0001
:1049200000EB0A1031684900B0FBF1F807E00AEB30
:10493000CA0000EB0A1031688900B0FBF1F864206E
:10494000B8FBF0F004012009642101FB1089A8895B
:1049500000F4004040B1322000EBC900B0FBF1F0A0
:1049600000F00700044308E0322000EB0910642146
:10497000B0FBF1F000F00F0004432C8106B0BDE85D
:10498000F08700000038014001468888C0F3080025
:104990007047C1F308028280704700001CB5A52053
:1049A0008DF80000EA208DF80100DC208DF802006F
:1049B00094208DF8030004216846FFF783FE024827
:1049C00000F048FA1CBD0000CC1F00201CB5A5203B
:1049D0008DF80000EA208DF80100E5208DF8020036
:1049E0008B208DF8030004216846FFF76BFE034B14
:1049F0000022C821024800F003FA1CBDD54B000874
:104A0000CC1F002000BFFEE72DE9F0411048D0E99F
:104A1000004310482246D0E90661304600F018FDF8
:104A200014D200210C4A116051600C4A116051608F
:104A300000200B4908600B49086001200A490870F2
:104A40000A48002101600A4800F004FABDE8F0813C
:104A5000F8060020F82000201002002000020020AC
:104A6000F4010020FC0100202A0200203002002076
:104A7000D00400200020014908607047082C004045
:104A800010B50348007800F005F8FFF7F3FF10BDFC
:104A90002400002000F07F01014A116070470000EF
:104AA000002C004038B51748D0E9064116480CC81C
:104AB000204600F0CDFC21D214480078401C134958
:104AC0000870084600780A281BDD0020104908708D
:104AD00010490870FDF762F901200FA31022082188
:104AE00000903020FCF7F2FC002302220C49104613
:104AF000FDF7AAF80B4800F0ADF902E000200349E9
:104B0000087038BDF820002068000020380200201E
:104B10005000002080030020B4FDBBFA000000001C
:104B20003C020020000500202DE9F04105462C46FE
:104B300040211148FCF7C6FC002619E0274607F083
:104B40008007802F04D180210B48FCF7BDFC03E0D7
:104B500080210948FCF7B6FC6006040E4021064897
:104B6000FCF7B2FC40210448FCF7ACFC701CC6B258
:104B7000082EE3DBBDE8F081000C014010B50446CF
:104B8000FCF7AEFF7820FFF7CFFFFCF7CDFF00204A
:104B9000FFF7CAFFFCF7C8FF2046FFF7C5FFFCF789
:104BA000C3FFFCF7B1FF10BD10B50446FCF798FF3A
:104BB0007820FFF7B9FFFCF7B7FF4020FFF7B4FFFD
:104BC000FCF7B2FF2046FFF7AFFFFCF7ADFFFCF7A5
:104BD0009BFF10BD1CB5A5208DF8000082208DF82C
:104BE000010000208DF8020001208DF80300D7207D
:104BF0008DF8040005216846FFF764FD034B002291
:104C0000C821034800F0FCF81CBD0000154C00084A
:104C1000CC1F00201CB5A5208DF8000093208DF836
:104C2000010004208DF8020065208DF803005E204D
:104C30008DF8040005216846FFF744FD034B002270
:104C4000C821034800F0DCF81CBD00009D490008A5
:104C5000CC1F002010B5034B0022C821024800F0F1
:104C6000CFF810BDCD490008CC1F0020014600BF81
:104C700070470020002100BF07E0002100E0491C30
:104C800040F2E7329142FADB401C40F2E7329042B8
:104C9000F3DB704710B56FF00400FFF7FDFA0A4828
:104CA00000680A49B0FBF1F009490870084600782D
:104CB00000EB4001C1EBC0104FF6FF7101EAC000EC
:104CC0000449088010BD00000000002000127A0096
:104CD00016000020180000200146114A12884A439D
:104CE0004FF0E0235A6100229A611A46126942F09D
:104CF00001021A6100BF4FF0E022106900F00102CA
:104D00001AB100F48032002AF5D04FF0E022126987
:104D100022F001024FF0E0231A6100229A617047ED
:104D20001800002001462F482F4A127881542E483F
:104D3000007878B92B482C4A1278805CAA2803D0D6
:104D40000020294A10704BE027480078401C264A72
:104D5000107045E02448007801280FD12148224AEC
:104D60001278805C552803D000201F4A107037E06D
:104D70001D480078401C1C4A107031E01A48007829
:104D8000062816D117488079164AD27940EA0220BF
:104D9000164A108014480078401C134A10701348BB
:104DA000008832281CDB0020104A10800E4A107048
:104DB00016E00D480078C01F0C4A1288904204D1BA
:104DC0000020094A10700748704707480078401CC7
:104DD000054A1070104600781A2801DD0020107076
:104DE0000020F1E760280020F80200209003002056
:104DF000FCF7E2FEFFF766FA01E000F033F8FCE7AB
:104E0000F0B50C46002501260670446000260672A7
:104E10004272C46003610D4E316800BF01B908E001
:104E2000814201D1012504E04E6906B901E04969DA
:104E3000F4E700BF4DB9064E3668761C044F3E605D
:104E4000024E36684661014E3060F0BD1C00002005
:104E50002000002000210170416001724172C16098
:104E60000161704710B50A48046800BF04B90CE03E
:104E7000207A28B100202072206908B1206980477B
:104E8000606900B901E06469F0E700BF10BD00008F
:104E90001C00002010B5472140F2E730FFF7B2FABE
:104EA00000200149086010BD1C00002021F00042D4
:104EB000A2F16052B2F5801F01F0004328BFD2F189
:104EC0007F6C0BD95FEA001C43EAC20242EB5070D0
:104ED00018BF704728BF20F001007047B2F5801F4F
:104EE000BCBF184670474FEA410C1CF5001F02D2A8
:104EF000084600F034BF70B500F090FB0000008958
:104F0000FFF7F6BF4FF00040A0F5800070470000AB
:104F100010B591EA030F48BF83F0004300F11C84F1
:104F2000841A71EB030C05D2121943EB0C03001B1E
:104F300061EB0C01DFF824E14FEA1154A4EB135CA0
:104F40001EEA430F18BF9EEA445F73D023EA0E03A4
:104F5000DCF1200E21EA045143F4801332D322FA0B
:104F60000CFE10EB0E0023FA0CFE41EB0E01CCF10F
:104F7000200E03FA0EFE10EB0E0051F10001B1F508
:104F8000801FCCF1200E32D201EB045112FA0EF246
:104F9000BDE8104058BF7047401C38BF5FEA42026E
:104FA00018BF7047002814BF20F0010041F1000134
:104FB0004FEA410313F5001F38BF7047A1F1C0410C
:104FC00000F07ABB012A43EB0302ACF1200CDCF1C8
:104FD0001F0E32BF4FF0000E23FA0CF310EB03004C
:104FE00041EB0451B4EB115FD0D0A1EB045101F5BA
:104FF000801149085FEA300001EB04510ED350F1F3
:10500000000038BF12FA0EFE08D1BDE81040C9E713
:10501000401C38BF5FEA4202CAD1C3E7BDE8104076
:105020004FEA410313F5001F38BF7047A1F1C0419B
:1050300000F042BB9EEA445F08D011EA5E0FBDE873
:10504000104004BF01F0004100207047BDE810404F
:1050500070B500F0E3FA00BF64FBBE3E0000E0FF65
:10506000491058BFC1F140415B1058BFC3F14043E4
:105070008B42EFF3008070472DE9C04130B4DFF878
:10508000A0C23CEA111418BF3CEA131400F0EC80F3
:1050900081EA03051CEA111444EAD57418BF1CEA1E
:1050A000131500F0C780A4EB05044FF0004545EA56
:1050B000C12145EAC32341EA505143EA525304F166
:1050C0007F74994204F500344FEAC0204FEAC222AF
:1050D00008BF904200F09C804FEA13650FF2401623
:1050E000765D4FEA134506FB05F7C7F1807706FBAF
:1050F00007F74FEAD737A7FB03687642C8F5803831
:10510000A7FB06CE38BFA8F1010807FB08E64FF061
:10511000000EA6FB028CE6FB03CEDCF1000CCEF108
:10512000004E38BFAEF1010EA6FB0C584FF0000741
:105130004FF00005E6FB0E87A1FB08C6A0FB07CEDB
:1051400016EB0E0645F10005E1FB076515F1E04E93
:105150007EBFA4F580345FEA46066D4116F18007F4
:1051600045F100054FEA17274FEA066647EA05674B
:10517000A6F1DE46B6F1805F4FEA15251FD9384605
:1051800024F0010C05EBC471BCF1FE6F01EB0C11B6
:1051900002D8F0BCBDE8008124425CBF01F5801E4E
:1051A0009EEAC47F02D4F0BCBDE80081244238D41A
:1051B000F0BCA1F1C041BDE8004100F07DBA4FEA6A
:1051C000D22242EA43524FEAD323A7FB02864FEA98
:1051D000D02040EA415007FB03661EEA0E0F4FEA5B
:1051E000D12105FB026658BFA6EB0056B6EB005670
:1051F0004FEA520E4EEAC37E18EB0E0E56EB530EDC
:10520000BDD518EB02085E417F1C55F10005B6E7DD
:105210004FF480154FF000074FF000064FF00008E4
:10522000ADE7F0BC4FF0000001F1C04101F00041DA
:10523000BDE8008111EA0C1F0CEA131500D00CE048
:1052400013EA0C1F00F025804FF00000F0BC81EA4B
:10525000030101F00041BDE80081F0BCBDE8004160
:1052600081EA030100F028BAF0BCBDE8004170B546
:1052700000F0D4F9097EFC3E00F007B881EA030192
:105280004FF0000001F00041704781EA030100F097
:1052900013BAF0BCBDE800414FF00000214970474F
:1052A000FFFDFBF9F7F5F4F2F0EEEDEBE9E8E6E4EB
:1052B000E3E1E0DEDDDBDAD8D7D5D4D3D1D0CFCD72
:1052C000CCCBCAC8C7C6C5C4C2C1C0BFBEBDBCBBAB
:1052D000BAB9B8B7B6B5B4B3B2B1B0AFAEADACABA6
:1052E000AAA9A8A8A7A6A5A4A3A3A2A1A09F9F9E80
:1052F0009D9C9C9B9A999998979796959594939332
:10530000929191908F8F8E8E8D8C8C8B8B8A8989C8
:10531000888887878685858484838382828181804B
:105320000000FF070000F87F51EA030C17D41CF5BA
:10533000801F58BFBCF5801F00F10680994218BF3E
:10534000704708BF9042704707D711F5801F58BFBC
:1053500013F5801F19D499427047894270471CF594
:10536000801F08D5BCF5801FF7D58B4218BF70474A
:1053700008BF824270474FF4001C1CEB410F38BF3E
:105380001CEB430F01D28B42704770B500F046F919
:10539000922449004FF000514FF08053FFF760BE58
:1053A0004FEA1153A3F58063D3F11E03A8BFD3F1D5
:1053B000200C08DB4FF0004242EAC12252EA505270
:1053C00032FA03F0704709420BD4102BC4BF0020FF
:1053D000704703F5787CBCF1FF3F05D04FF0FF30FC
:1053E00070474FF00000704770B500F017F900BF2C
:1053F0004992248000207047F0E710F0004248BF37
:105400004042B0FA80F310FA03F10AD0C3F11D0351
:1054100003F580634FEA415002EB035202EBD121C6
:1054200070474FF000007047B0FA80F310FA03F1B4
:105430000AD0C3F11D0303F580634FEA41504FEAE0
:10544000035202EBD12170474FF00000704700007B
:1054500051EA030C17D41CF5801F58BFBCF5801F00
:1054600000F10680994218BF704708BF904270470C
:1054700007D711F5801F58BF13F5801F19D4994223
:105480007047894270471CF5801F08D5BCF5801F06
:10549000F7D58B4218BF704708BF824270474FF460
:1054A000001C1CEB410F38BF1CEB430F01D28B4299
:1054B000704770B500F0B2F8922449004FF00051E7
:1054C0004FF08053FFF7CCBDDFF848C170B51CEA40
:1054D000111E1EBF1CEA13159EEA0C0F95EA0C0F55
:1054E00000F06F8081EA030423EA4C134EEAD47E75
:1054F00021EA4C1141F4801143F48013AE44A1FB26
:10550000024CA0FB0365AEF17F7E361955EB0C050E
:10551000A1FB034C4CF10003A0FB021C16EB0C0694
:10552000654153F10003094218BF46F0010613F428
:10553000007F0BD14FEA03314FEA0530340341EAD3
:10554000155140EA16506FF003020AE04FEAC321FA
:105550004FEAC520F40241EA555140EA56506FF037
:10556000020202EB2E4201EB025585EACE710AD00F
:105570005FEA440C18BF24F0004450F1000041F1F0
:10558000000120EAD47040F2FE7C624500D270BD7A
:10559000A84214BF4FF080444FF04044002E08BF93
:1055A0000024BEF1806FA8BFA1F1C041BDE87040EA
:1055B00080F282804FF0000001F1C04101F0004113
:1055C00070479EEA0C0F0CEA131518BF95EA0C0FF2
:1055D00006D04FF0000081EA030E0EF0004170BDCE
:1055E00000F01CF88900013E00F007B800F009B88F
:1055F0004FEA430C5FEA5C5C08D081EA030100F0EB
:105600005BB84FEA410C5FEA5C5CF6D14FF00000FA
:10561000014970470000FF070000F87F0EF1020EFD
:105620002EF0030E5EF8046B364205D4012A43EBDC
:10563000030515F5001F12D8012841EB010C1CF5DC
:10564000001F0CD80ED14FEAD17C15F5001F0CEBD2
:105650004C0C0CF1020C08BF4CEBD37C04E04FF077
:10566000080C01E04FEAD37C0CEB4C0526FA05F65A
:1056700006F00706B6F1040C06D20EEB860CBDE868
:1056800070404CF0010C6047DFE80CF0090B02029F
:105690004FF000414FF00000A1F5002170BD194608
:1056A0001046012851EB010418BFD4F5001484BF43
:1056B000002001F0004170BD0808A0F500114FEA7C
:1056C0003101704753EA010C17D41CF5801F58BFF5
:1056D000BCF5801F00F106808B4218BF704708BFE1
:1056E0008242704707D713F5801F58BF11F5801FFE
:1056F00019D48B4270479B4270471CF5801F08D518
:10570000BCF5801FF7D5994218BF704708BF90427B
:1057100070474FF4001C1CEB430F38BF1CEB410FCC
:1057200001D2994270470FB40CBC03BCFFF7C1BE55
:1057300091EA030F10B581F000413FF5F1AB83F022
:10574000004300F009B8000010B591EA030F48BF0C
:1057500083F000433FF5E4AB841A71EB030C07D2EE
:1057600012198CF0004C43EB0C03001B61EB0C0195
:10577000DFF8A4E14FEA1154A4EB135C1EEA430FD7
:1057800018BF9EEA445F00F0B08023EA6E035242E5
:1057900021EA0451C3EB6E0338BF5B1EDCF1200E1F
:1057A00025D322FA0CFE10EB0E0043FA0CFE41EB5F
:1057B0000E01CCF1200E03FA0EFE10EB0E0051F19B
:1057C0000001CCF1200E29D412FA0EF201EB0451A3
:1057D000BDE8104058BF7047401C1CBFB2F1004FDD
:1057E000704700280CBF491C20F00100704712EBE5
:1057F000020E43EB030218BF4FF0010E4EEA4202C5
:10580000ACF1200CDCF11E0E54D943FA0CFE10EB67
:105810000E0051F1FF31CCF11E0ED5D50EF1010E67
:1058200012FA0EFE404141EB010101EB445C5FEADC
:105830005C5C10D910EBDE7001EB045138BFBEF197
:10584000004FBDE8104018BF704700280CBF491C2E
:1058500020F00100704730D24FEAD42C11F500112E
:1058600024F400641BD0B1FA81F20B3AA41AA41EEE
:10587000D2F12003914030FA03F31943904001EB39
:10588000CC71002C01EB0451BDE81040A8BF70475B
:1058900001F1C0414FF0000001F000417047B0FA43
:1058A00080F310FA03F100D110BDE41A173C48054B
:1058B000C90AE4E701EB045110BD491001EB0451A2
:1058C000BDE810404FEA300002E04FF000017047A1
:1058D0004A0008BF0042F8D0B2F5001F28BF704749
:1058E00001F000414FF0000070479EEA445F07D08E
:1058F00011EA5E0FBDE8104004BF00210020704790
:10590000BDE8104070B5FFF789FE00BF40DFF63EEE
:1059100083F00041104670470000E0FF43004FEA6B
:10592000D30C4FEA3C0C43401FBF40070CF16051C1
:1059300013F0FE4F70471CF0006F03D100200CF0F5
:10594000004170470CF0004343EA507010B540EA44
:10595000CC0000F0BEF900BF000000924FEA000149
:10596000FFF7AABE4FF000414FF00000A1F5002163
:105970007047401058BFC0F14040491058BFC1F1B6
:1059800040418142EFF30080704700004FF47F0CEC
:105990001CEAD0121EBF1CEAD11392EA0C0F93EA44
:1059A0000C0F00F0858090EA010F48BF42F480722E
:1059B00040F4000C41F400002CF07F4120F07F40C7
:1059C00000B58142A2EB03020FF2081CACEB504E73
:1059D000C0F100009EF800E04FEA4E0E00FB0EFC06
:1059E00038BF49004FEA2C1C02F5FA020CFB0EF3FB
:1059F0004FEACE1E4FEA112C4FEAC1210EEB635E37
:105A000042EB22420EFB0CFC4FEA1C5300FB03113D
:105A10004FEA112C4FEA01310EFB0CFC4FEADC4C33
:105A200000FB0C11C14228BF09184CEB03335DF891
:105A300004EB10EB410143EBC250B2F57C0F38BFD1
:105A4000704729D512F0F00F1CBF00F1C04000F0E4
:105A500000407047008182838485868788898B8C8B
:105A60008D8E8F919293959697999A9C9D9FA0A2C7
:105A7000A3A5A7A8AAACAEB0B2B3B5B7B9BCBEC017
:105A8000C2C5C7C9CCCED1D4D7D9DCDFE2E6E9ECB8
:105A9000F0F3F7FAFE0000004FEA400C0CF1807CB6
:105AA000BCF17E4F28BF7047B0F1C04000F057B93D
:105AB00090EA010F0CEAD11348BF42F480726245AC
:105AC00038BF634507D213F47F0F16D080EA010078
:105AD00000F00040704710B500F0FBF8097EFC3E76
